{
  "_format": "hh-sol-artifact-1",
  "contractName": "CertificateRegistry",
  "sourceName": "contracts/CertificationRegistry.sol",
  "abi": [
    {
      "inputs": [],
      "stateMutability": "nonpayable",
      "type": "constructor"
    },
    {
      "inputs": [
        {
          "internalType": "address",
          "name": "owner",
          "type": "address"
        }
      ],
      "name": "OwnableInvalidOwner",
      "type": "error"
    },
    {
      "inputs": [
        {
          "internalType": "address",
          "name": "account",
          "type": "address"
        }
      ],
      "name": "OwnableUnauthorizedAccount",
      "type": "error"
    },
    {
      "anonymous": false,
      "inputs": [
        {
          "indexed": true,
          "internalType": "uint256",
          "name": "id",
          "type": "uint256"
        },
        {
          "indexed": true,
          "internalType": "address",
          "name": "issuedTo",
          "type": "address"
        },
        {
          "indexed": false,
          "internalType": "string",
          "name": "studentName",
          "type": "string"
        },
        {
          "indexed": false,
          "internalType": "string",
          "name": "courseName",
          "type": "string"
        },
        {
          "indexed": false,
          "internalType": "string",
          "name": "ipfsHash",
          "type": "string"
        },
        {
          "indexed": false,
          "internalType": "uint256",
          "name": "issuedAt",
          "type": "uint256"
        }
      ],
      "name": "CertificateIssued",
      "type": "event"
    },
    {
      "anonymous": false,
      "inputs": [
        {
          "indexed": true,
          "internalType": "uint256",
          "name": "id",
          "type": "uint256"
        },
        {
          "indexed": false,
          "internalType": "address",
          "name": "revokedBy",
          "type": "address"
        }
      ],
      "name": "CertificateRevoked",
      "type": "event"
    },
    {
      "anonymous": false,
      "inputs": [
        {
          "indexed": true,
          "internalType": "address",
          "name": "issuer",
          "type": "address"
        }
      ],
      "name": "IssuerAdded",
      "type": "event"
    },
    {
      "anonymous": false,
      "inputs": [
        {
          "indexed": true,
          "internalType": "address",
          "name": "issuer",
          "type": "address"
        }
      ],
      "name": "IssuerRemoved",
      "type": "event"
    },
    {
      "anonymous": false,
      "inputs": [
        {
          "indexed": true,
          "internalType": "address",
          "name": "previousOwner",
          "type": "address"
        },
        {
          "indexed": true,
          "internalType": "address",
          "name": "newOwner",
          "type": "address"
        }
      ],
      "name": "OwnershipTransferred",
      "type": "event"
    },
    {
      "inputs": [
        {
          "internalType": "address",
          "name": "_issuer",
          "type": "address"
        }
      ],
      "name": "addIssuer",
      "outputs": [],
      "stateMutability": "nonpayable",
      "type": "function"
    },
    {
      "inputs": [
        {
          "internalType": "address",
          "name": "",
          "type": "address"
        }
      ],
      "name": "authorizedIssuers",
      "outputs": [
        {
          "internalType": "bool",
          "name": "",
          "type": "bool"
        }
      ],
      "stateMutability": "view",
      "type": "function"
    },
    {
      "inputs": [
        {
          "internalType": "uint256",
          "name": "",
          "type": "uint256"
        }
      ],
      "name": "certificates",
      "outputs": [
        {
          "internalType": "uint256",
          "name": "id",
          "type": "uint256"
        },
        {
          "internalType": "address",
          "name": "issuedTo",
          "type": "address"
        },
        {
          "internalType": "string",
          "name": "studentName",
          "type": "string"
        },
        {
          "internalType": "string",
          "name": "courseName",
          "type": "string"
        },
        {
          "internalType": "string",
          "name": "ipfsHash",
          "type": "string"
        },
        {
          "internalType": "uint256",
          "name": "issuedAt",
          "type": "uint256"
        },
        {
          "internalType": "bool",
          "name": "isValid",
          "type": "bool"
        }
      ],
      "stateMutability": "view",
      "type": "function"
    },
    {
      "inputs": [
        {
          "internalType": "address",
          "name": "_student",
          "type": "address"
        }
      ],
      "name": "getStudentCertificates",
      "outputs": [
        {
          "internalType": "uint256[]",
          "name": "",
          "type": "uint256[]"
        }
      ],
      "stateMutability": "view",
      "type": "function"
    },
    {
      "inputs": [],
      "name": "getTotalCertificates",
      "outputs": [
        {
          "internalType": "uint256",
          "name": "",
          "type": "uint256"
        }
      ],
      "stateMutability": "view",
      "type": "function"
    },
    {
      "inputs": [
        {
          "internalType": "string",
          "name": "",
          "type": "string"
        }
      ],
      "name": "hashToCertificate",
      "outputs": [
        {
          "internalType": "uint256",
          "name": "",
          "type": "uint256"
        }
      ],
      "stateMutability": "view",
      "type": "function"
    },
    {
      "inputs": [
        {
          "internalType": "address",
          "name": "_studentAddress",
          "type": "address"
        },
        {
          "internalType": "string",
          "name": "_studentName",
          "type": "string"
        },
        {
          "internalType": "string",
          "name": "_courseName",
          "type": "string"
        },
        {
          "internalType": "string",
          "name": "_ipfsHash",
          "type": "string"
        }
      ],
      "name": "issueCertificate",
      "outputs": [
        {
          "internalType": "uint256",
          "name": "",
          "type": "uint256"
        }
      ],
      "stateMutability": "nonpayable",
      "type": "function"
    },
    {
      "inputs": [],
      "name": "owner",
      "outputs": [
        {
          "internalType": "address",
          "name": "",
          "type": "address"
        }
      ],
      "stateMutability": "view",
      "type": "function"
    },
    {
      "inputs": [
        {
          "internalType": "address",
          "name": "_issuer",
          "type": "address"
        }
      ],
      "name": "removeIssuer",
      "outputs": [],
      "stateMutability": "nonpayable",
      "type": "function"
    },
    {
      "inputs": [],
      "name": "renounceOwnership",
      "outputs": [],
      "stateMutability": "nonpayable",
      "type": "function"
    },
    {
      "inputs": [
        {
          "internalType": "uint256",
          "name": "_certId",
          "type": "uint256"
        }
      ],
      "name": "revokeCertificate",
      "outputs": [],
      "stateMutability": "nonpayable",
      "type": "function"
    },
    {
      "inputs": [
        {
          "internalType": "address",
          "name": "",
          "type": "address"
        },
        {
          "internalType": "uint256",
          "name": "",
          "type": "uint256"
        }
      ],
      "name": "studentCertificates",
      "outputs": [
        {
          "internalType": "uint256",
          "name": "",
          "type": "uint256"
        }
      ],
      "stateMutability": "view",
      "type": "function"
    },
    {
      "inputs": [
        {
          "internalType": "address",
          "name": "newOwner",
          "type": "address"
        }
      ],
      "name": "transferOwnership",
      "outputs": [],
      "stateMutability": "nonpayable",
      "type": "function"
    },
    {
      "inputs": [
        {
          "internalType": "string",
          "name": "_ipfsHash",
          "type": "string"
        }
      ],
      "name": "verifyByHash",
      "outputs": [
        {
          "internalType": "bool",
          "name": "isValid",
          "type": "bool"
        },
        {
          "internalType": "uint256",
          "name": "certId",
          "type": "uint256"
        }
      ],
      "stateMutability": "view",
      "type": "function"
    },
    {
      "inputs": [
        {
          "internalType": "uint256",
          "name": "_certId",
          "type": "uint256"
        }
      ],
      "name": "verifyCertificate",
      "outputs": [
        {
          "internalType": "bool",
          "name": "isValid",
          "type": "bool"
        },
        {
          "internalType": "string",
          "name": "studentName",
          "type": "string"
        },
        {
          "internalType": "string",
          "name": "courseName",
          "type": "string"
        },
        {
          "internalType": "string",
          "name": "ipfsHash",
          "type": "string"
        },
        {
          "internalType": "uint256",
          "name": "issuedAt",
          "type": "uint256"
        },
        {
          "internalType": "address",
          "name": "issuedTo",
          "type": "address"
        }
      ],
      "stateMutability": "view",
      "type": "function"
    }
  ],
  "bytecode": "0x608060405234801561001057600080fd5b50338061003757604051631e4fbdf760e01b81526000600482015260240160405180910390fd5b61004081610060565b50336000908152600560205260409020805460ff191660011790556100b0565b600080546001600160a01b038381166001600160a01b0319831681178455604051919092169283917f8be0079c531659141344cd1fd0a4f28419497f9722a3daafe3b4186f6b6457e09190a35050565b611396806100bf6000396000f3fe608060405234801561001057600080fd5b50600436106100f55760003560e01c80637843bb7911610097578063c3934f0e11610066578063c3934f0e14610226578063ebc63bc014610239578063f2fde38b14610259578063f731fa0f1461026c57600080fd5b80637843bb79146101bb5780638da5cb5b146101cd5780638eb933ac146101e8578063a89791e2146101fb57600080fd5b806347bc7093116100d357806347bc70931461015057806354558bfd14610163578063663b3e221461018d578063715018a6146101b357600080fd5b806306f5497e146100fa5780631692a9421461010f57806320694db01461013d575b600080fd5b61010d610108366004610e2a565b61029f565b005b61012261011d366004610e2a565b610412565b60405161013496959493929190610e93565b60405180910390f35b61010d61014b366004610f14565b6106ab565b61010d61015e366004610f14565b6106ff565b610176610171366004610fd9565b610750565b604080519215158352602083019190915201610134565b6101a061019b366004610e2a565b6107d8565b6040516101349796959493929190611016565b61010d6109ba565b6001545b604051908152602001610134565b6000546040516001600160a01b039091168152602001610134565b6101bf6101f6366004611082565b6109ce565b6101bf610209366004610fd9565b805160208183018101805160048252928201919093012091525481565b6101bf61023436600461111b565b610cd2565b61024c610247366004610f14565b610d03565b6040516101349190611145565b61010d610267366004610f14565b610d6f565b61028f61027a366004610f14565b60056020526000908152604090205460ff1681565b6040519015158152602001610134565b3360009081526005602052604090205460ff16806102c757506000546001600160a01b031633145b6103105760405162461bcd60e51b81526020600482015260156024820152742737ba1030baba3437b934bd32b21034b9b9bab2b960591b60448201526064015b60405180910390fd5b600081815260026020526040812054900361036d5760405162461bcd60e51b815260206004820152601a60248201527f436572746966696361746520646f6573206e6f742065786973740000000000006044820152606401610307565b60008181526002602052604090206006015460ff166103c05760405162461bcd60e51b815260206004820152600f60248201526e105b1c9958591e481c995d9bdad959608a1b6044820152606401610307565b600081815260026020908152604091829020600601805460ff19169055905133815282917f325c62e70cfaa61cf0709d9607ea9d8451b235297c4b47c65ff6a6449c9faca4910160405180910390a250565b6000818152600260208181526040808420815160e0810183528154815260018201546001600160a01b031693810193909352928301805460609485948594889485948594928401919061046490611189565b80601f016020809104026020016040519081016040528092919081815260200182805461049090611189565b80156104dd5780601f106104b2576101008083540402835291602001916104dd565b820191906000526020600020905b8154815290600101906020018083116104c057829003601f168201915b505050505081526020016003820180546104f690611189565b80601f016020809104026020016040519081016040528092919081815260200182805461052290611189565b801561056f5780601f106105445761010080835404028352916020019161056f565b820191906000526020600020905b81548152906001019060200180831161055257829003601f168201915b5050505050815260200160048201805461058890611189565b80601f01602080910402602001604051908101604052809291908181526020018280546105b490611189565b80156106015780601f106105d657610100808354040283529160200191610601565b820191906000526020600020905b8154815290600101906020018083116105e457829003601f168201915b50505091835250506005820154602082015260069091015460ff16151560409091015280519091506000036106785760405162461bcd60e51b815260206004820152601a60248201527f436572746966696361746520646f6573206e6f742065786973740000000000006044820152606401610307565b60c081015160408201516060830151608084015160a0850151602090950151939c929b5090995097509195509350915050565b6106b3610dad565b6001600160a01b038116600081815260056020526040808220805460ff19166001179055517f05e7c881d716bee8cb7ed92293133ba156704252439e5c502c277448f04e20c29190a250565b610707610dad565b6001600160a01b038116600081815260056020526040808220805460ff19169055517faf66545c919a3be306ee446d8f42a9558b5b022620df880517bc9593ec0f2d529190a250565b60008060048360405161076391906111c3565b9081526020016040518091039020549050806000036107bb5760405162461bcd60e51b8152602060048201526014602482015273139bc818d95c9d1a599a58d85d1948199bdd5b9960621b6044820152606401610307565b60008181526002602052604090206006015460ff16939092509050565b600260208190526000918252604090912080546001820154928201805491936001600160a01b0316929161080b90611189565b80601f016020809104026020016040519081016040528092919081815260200182805461083790611189565b80156108845780601f1061085957610100808354040283529160200191610884565b820191906000526020600020905b81548152906001019060200180831161086757829003601f168201915b50505050509080600301805461089990611189565b80601f01602080910402602001604051908101604052809291908181526020018280546108c590611189565b80156109125780601f106108e757610100808354040283529160200191610912565b820191906000526020600020905b8154815290600101906020018083116108f557829003601f168201915b50505050509080600401805461092790611189565b80601f016020809104026020016040519081016040528092919081815260200182805461095390611189565b80156109a05780601f10610975576101008083540402835291602001916109a0565b820191906000526020600020905b81548152906001019060200180831161098357829003601f168201915b50505050600583015460069093015491929160ff16905087565b6109c2610dad565b6109cc6000610dda565b565b3360009081526005602052604081205460ff16806109f657506000546001600160a01b031633145b610a3a5760405162461bcd60e51b81526020600482015260156024820152742737ba1030baba3437b934bd32b21034b9b9bab2b960591b6044820152606401610307565b6001600160a01b038516610a905760405162461bcd60e51b815260206004820152601760248201527f496e76616c69642073747564656e7420616464726573730000000000000000006044820152606401610307565b6000825111610ad65760405162461bcd60e51b815260206004820152601260248201527112541194c81a185cda081c995c5d5a5c995960721b6044820152606401610307565b600482604051610ae691906111c3565b908152602001604051809103902054600014610b445760405162461bcd60e51b815260206004820152601a60248201527f436572746966696361746520616c7265616479206578697374730000000000006044820152606401610307565b60018054906000610b54836111df565b9091555050600180546040805160e0810182528281526001600160a01b0389811660208084019182528385018b8152606085018b9052608085018a90524260a086015260c0850188905260008781526002928390529590952084518155915196820180546001600160a01b031916979093169690961790915591519293909290820190610be19082611255565b5060608201516003820190610bf69082611255565b5060808201516004820190610c0b9082611255565b5060a0820151600582015560c0909101516006909101805460ff19169115159190911790556001600160a01b038616600090815260036020908152604080832080546001810182559084529190922001829055518190600490610c6f9086906111c3565b908152602001604051809103902081905550856001600160a01b0316817f6557fe3fb7bc98c2a20f0aed7feb47f23dc5a5ba78caa8c62e489a8901deda4587878742604051610cc19493929190611315565b60405180910390a395945050505050565b60036020528160005260406000208181548110610cee57600080fd5b90600052602060002001600091509150505481565b6001600160a01b038116600090815260036020908152604091829020805483518184028101840190945280845260609392830182828015610d6357602002820191906000526020600020905b815481526020019060010190808311610d4f575b50505050509050919050565b610d77610dad565b6001600160a01b038116610da157604051631e4fbdf760e01b815260006004820152602401610307565b610daa81610dda565b50565b6000546001600160a01b031633146109cc5760405163118cdaa760e01b8152336004820152602401610307565b600080546001600160a01b038381166001600160a01b0319831681178455604051919092169283917f8be0079c531659141344cd1fd0a4f28419497f9722a3daafe3b4186f6b6457e09190a35050565b600060208284031215610e3c57600080fd5b5035919050565b60005b83811015610e5e578181015183820152602001610e46565b50506000910152565b60008151808452610e7f816020860160208601610e43565b601f01601f19169290920160200192915050565b861515815260c060208201526000610eae60c0830188610e67565b8281036040840152610ec08188610e67565b90508281036060840152610ed48187610e67565b608084019590955250506001600160a01b039190911660a090910152949350505050565b80356001600160a01b0381168114610f0f57600080fd5b919050565b600060208284031215610f2657600080fd5b610f2f82610ef8565b9392505050565b634e487b7160e01b600052604160045260246000fd5b600082601f830112610f5d57600080fd5b813567ffffffffffffffff80821115610f7857610f78610f36565b604051601f8301601f19908116603f01168101908282118183101715610fa057610fa0610f36565b81604052838152866020858801011115610fb957600080fd5b836020870160208301376000602085830101528094505050505092915050565b600060208284031215610feb57600080fd5b813567ffffffffffffffff81111561100257600080fd5b61100e84828501610f4c565b949350505050565b8781526001600160a01b038716602082015260e06040820181905260009061104090830188610e67565b82810360608401526110528188610e67565b905082810360808401526110668187610e67565b60a0840195909552505090151560c09091015295945050505050565b6000806000806080858703121561109857600080fd5b6110a185610ef8565b9350602085013567ffffffffffffffff808211156110be57600080fd5b6110ca88838901610f4c565b945060408701359150808211156110e057600080fd5b6110ec88838901610f4c565b9350606087013591508082111561110257600080fd5b5061110f87828801610f4c565b91505092959194509250565b6000806040838503121561112e57600080fd5b61113783610ef8565b946020939093013593505050565b6020808252825182820181905260009190848201906040850190845b8181101561117d57835183529284019291840191600101611161565b50909695505050505050565b600181811c9082168061119d57607f821691505b6020821081036111bd57634e487b7160e01b600052602260045260246000fd5b50919050565b600082516111d5818460208701610e43565b9190910192915050565b6000600182016111ff57634e487b7160e01b600052601160045260246000fd5b5060010190565b601f82111561125057600081815260208120601f850160051c8101602086101561122d5750805b601f850160051c820191505b8181101561124c57828155600101611239565b5050505b505050565b815167ffffffffffffffff81111561126f5761126f610f36565b6112838161127d8454611189565b84611206565b602080601f8311600181146112b857600084156112a05750858301515b600019600386901b1c1916600185901b17855561124c565b600085815260208120601f198616915b828110156112e7578886015182559484019460019091019084016112c8565b50858210156113055787850151600019600388901b60f8161c191681555b5050505050600190811b01905550565b6080815260006113286080830187610e67565b828103602084015261133a8187610e67565b9050828103604084015261134e8186610e67565b9150508260608301529594505050505056fea264697066735822122091cd2cd56539ba6919d2836f6125d34789d920e7ab15071c7c6a9e4343b613f764736f6c63430008140033",
  "linkReferences": {},
  "deployedLinkReferences": {}
}